{
  "_format": "hh-sol-artifact-1",
  "contractName": "RuNFT",
  "sourceName": "contracts/RuNFT.sol",
  "abi": [
    {
      "inputs": [],
      "stateMutability": "nonpayable",
      "type": "constructor"
    },
    {
      "anonymous": false,
      "inputs": [
        {
          "indexed": true,
          "internalType": "address",
          "name": "owner",
          "type": "address"
        },
        {
          "indexed": true,
          "internalType": "address",
          "name": "approved",
          "type": "address"
        },
        {
          "indexed": true,
          "internalType": "uint256",
          "name": "tokenId",
          "type": "uint256"
        }
      ],
      "name": "Approval",
      "type": "event"
    },
    {
      "anonymous": false,
      "inputs": [
        {
          "indexed": true,
          "internalType": "address",
          "name": "owner",
          "type": "address"
        },
        {
          "indexed": true,
          "internalType": "address",
          "name": "operator",
          "type": "address"
        },
        {
          "indexed": false,
          "internalType": "bool",
          "name": "approved",
          "type": "bool"
        }
      ],
      "name": "ApprovalForAll",
      "type": "event"
    },
    {
      "anonymous": false,
      "inputs": [
        {
          "indexed": true,
          "internalType": "address",
          "name": "previousOwner",
          "type": "address"
        },
        {
          "indexed": true,
          "internalType": "address",
          "name": "newOwner",
          "type": "address"
        }
      ],
      "name": "OwnershipTransferred",
      "type": "event"
    },
    {
      "anonymous": false,
      "inputs": [
        {
          "indexed": true,
          "internalType": "address",
          "name": "from",
          "type": "address"
        },
        {
          "indexed": true,
          "internalType": "address",
          "name": "to",
          "type": "address"
        },
        {
          "indexed": true,
          "internalType": "uint256",
          "name": "tokenId",
          "type": "uint256"
        }
      ],
      "name": "Transfer",
      "type": "event"
    },
    {
      "inputs": [
        {
          "internalType": "address",
          "name": "to",
          "type": "address"
        },
        {
          "internalType": "uint256",
          "name": "tokenId",
          "type": "uint256"
        }
      ],
      "name": "approve",
      "outputs": [],
      "stateMutability": "nonpayable",
      "type": "function"
    },
    {
      "inputs": [
        {
          "internalType": "address",
          "name": "owner",
          "type": "address"
        }
      ],
      "name": "balanceOf",
      "outputs": [
        {
          "internalType": "uint256",
          "name": "",
          "type": "uint256"
        }
      ],
      "stateMutability": "view",
      "type": "function"
    },
    {
      "inputs": [
        {
          "internalType": "uint256",
          "name": "tokenId",
          "type": "uint256"
        }
      ],
      "name": "getApproved",
      "outputs": [
        {
          "internalType": "address",
          "name": "",
          "type": "address"
        }
      ],
      "stateMutability": "view",
      "type": "function"
    },
    {
      "inputs": [
        {
          "internalType": "uint256",
          "name": "",
          "type": "uint256"
        }
      ],
      "name": "idToMarketItem",
      "outputs": [
        {
          "internalType": "uint256",
          "name": "itemId",
          "type": "uint256"
        },
        {
          "internalType": "string",
          "name": "tokenURI",
          "type": "string"
        },
        {
          "internalType": "address payable",
          "name": "owner",
          "type": "address"
        },
        {
          "internalType": "uint256",
          "name": "price",
          "type": "uint256"
        },
        {
          "internalType": "bool",
          "name": "sell",
          "type": "bool"
        },
        {
          "internalType": "bool",
          "name": "sold",
          "type": "bool"
        }
      ],
      "stateMutability": "view",
      "type": "function"
    },
    {
      "inputs": [
        {
          "internalType": "address",
          "name": "owner",
          "type": "address"
        },
        {
          "internalType": "address",
          "name": "operator",
          "type": "address"
        }
      ],
      "name": "isApprovedForAll",
      "outputs": [
        {
          "internalType": "bool",
          "name": "",
          "type": "bool"
        }
      ],
      "stateMutability": "view",
      "type": "function"
    },
    {
      "inputs": [
        {
          "internalType": "address",
          "name": "recipient",
          "type": "address"
        },
        {
          "internalType": "string",
          "name": "tokenURI",
          "type": "string"
        }
      ],
      "name": "mintNFT",
      "outputs": [
        {
          "internalType": "uint256",
          "name": "",
          "type": "uint256"
        }
      ],
      "stateMutability": "nonpayable",
      "type": "function"
    },
    {
      "inputs": [],
      "name": "name",
      "outputs": [
        {
          "internalType": "string",
          "name": "",
          "type": "string"
        }
      ],
      "stateMutability": "view",
      "type": "function"
    },
    {
      "inputs": [],
      "name": "owner",
      "outputs": [
        {
          "internalType": "address",
          "name": "",
          "type": "address"
        }
      ],
      "stateMutability": "view",
      "type": "function"
    },
    {
      "inputs": [
        {
          "internalType": "uint256",
          "name": "tokenId",
          "type": "uint256"
        }
      ],
      "name": "ownerOf",
      "outputs": [
        {
          "internalType": "address",
          "name": "",
          "type": "address"
        }
      ],
      "stateMutability": "view",
      "type": "function"
    },
    {
      "inputs": [],
      "name": "renounceOwnership",
      "outputs": [],
      "stateMutability": "nonpayable",
      "type": "function"
    },
    {
      "inputs": [
        {
          "internalType": "address",
          "name": "from",
          "type": "address"
        },
        {
          "internalType": "address",
          "name": "to",
          "type": "address"
        },
        {
          "internalType": "uint256",
          "name": "tokenId",
          "type": "uint256"
        }
      ],
      "name": "safeTransferFrom",
      "outputs": [],
      "stateMutability": "nonpayable",
      "type": "function"
    },
    {
      "inputs": [
        {
          "internalType": "address",
          "name": "from",
          "type": "address"
        },
        {
          "internalType": "address",
          "name": "to",
          "type": "address"
        },
        {
          "internalType": "uint256",
          "name": "tokenId",
          "type": "uint256"
        },
        {
          "internalType": "bytes",
          "name": "_data",
          "type": "bytes"
        }
      ],
      "name": "safeTransferFrom",
      "outputs": [],
      "stateMutability": "nonpayable",
      "type": "function"
    },
    {
      "inputs": [
        {
          "internalType": "address",
          "name": "to",
          "type": "address"
        },
        {
          "internalType": "uint256",
          "name": "tokenId",
          "type": "uint256"
        },
        {
          "internalType": "uint256",
          "name": "price",
          "type": "uint256"
        }
      ],
      "name": "sellNFT",
      "outputs": [],
      "stateMutability": "nonpayable",
      "type": "function"
    },
    {
      "inputs": [
        {
          "internalType": "address",
          "name": "operator",
          "type": "address"
        },
        {
          "internalType": "bool",
          "name": "approved",
          "type": "bool"
        }
      ],
      "name": "setApprovalForAll",
      "outputs": [],
      "stateMutability": "nonpayable",
      "type": "function"
    },
    {
      "inputs": [
        {
          "internalType": "bytes4",
          "name": "interfaceId",
          "type": "bytes4"
        }
      ],
      "name": "supportsInterface",
      "outputs": [
        {
          "internalType": "bool",
          "name": "",
          "type": "bool"
        }
      ],
      "stateMutability": "view",
      "type": "function"
    },
    {
      "inputs": [],
      "name": "symbol",
      "outputs": [
        {
          "internalType": "string",
          "name": "",
          "type": "string"
        }
      ],
      "stateMutability": "view",
      "type": "function"
    },
    {
      "inputs": [
        {
          "internalType": "uint256",
          "name": "tokenId",
          "type": "uint256"
        }
      ],
      "name": "tokenURI",
      "outputs": [
        {
          "internalType": "string",
          "name": "",
          "type": "string"
        }
      ],
      "stateMutability": "view",
      "type": "function"
    },
    {
      "inputs": [
        {
          "internalType": "address",
          "name": "from",
          "type": "address"
        },
        {
          "internalType": "address",
          "name": "to",
          "type": "address"
        },
        {
          "internalType": "uint256",
          "name": "tokenId",
          "type": "uint256"
        }
      ],
      "name": "transferFrom",
      "outputs": [],
      "stateMutability": "nonpayable",
      "type": "function"
    },
    {
      "inputs": [
        {
          "internalType": "address",
          "name": "newOwner",
          "type": "address"
        }
      ],
      "name": "transferOwnership",
      "outputs": [],
      "stateMutability": "nonpayable",
      "type": "function"
    }
  ],
  "bytecode": "0x60806040523480156200001157600080fd5b506040518060400160405280600581526020017f52754e46540000000000000000000000000000000000000000000000000000008152506040518060400160405280600381526020017f4e46540000000000000000000000000000000000000000000000000000000000815250816000908051906020019062000096929190620001a6565b508060019080519060200190620000af929190620001a6565b505050620000d2620000c6620000d860201b60201c565b620000e060201b60201c565b620002bb565b600033905090565b6000600760009054906101000a900473ffffffffffffffffffffffffffffffffffffffff16905081600760006101000a81548173ffffffffffffffffffffffffffffffffffffffff021916908373ffffffffffffffffffffffffffffffffffffffff1602179055508173ffffffffffffffffffffffffffffffffffffffff168173ffffffffffffffffffffffffffffffffffffffff167f8be0079c531659141344cd1fd0a4f28419497f9722a3daafe3b4186f6b6457e060405160405180910390a35050565b828054620001b49062000256565b90600052602060002090601f016020900481019282620001d8576000855562000224565b82601f10620001f357805160ff191683800117855562000224565b8280016001018555821562000224579182015b828111156200022357825182559160200191906001019062000206565b5b50905062000233919062000237565b5090565b5b808211156200025257600081600090555060010162000238565b5090565b600060028204905060018216806200026f57607f821691505b602082108114156200028657620002856200028c565b5b50919050565b7f4e487b7100000000000000000000000000000000000000000000000000000000600052602260045260246000fd5b6133e680620002cb6000396000f3fe608060405234801561001057600080fd5b50600436106101215760003560e01c80638da5cb5b116100ad578063e61a70c011610071578063e61a70c014610306578063e985e9c51461033b578063eacabe141461036b578063f2fde38b1461039b578063f779a193146103b757610121565b80638da5cb5b1461026257806395d89b4114610280578063a22cb4651461029e578063b88d4fde146102ba578063c87b56dd146102d657610121565b806323b872dd116100f457806323b872dd146101c057806342842e0e146101dc5780636352211e146101f857806370a0823114610228578063715018a61461025857610121565b806301ffc9a71461012657806306fdde0314610156578063081812fc14610174578063095ea7b3146101a4575b600080fd5b610140600480360381019061013b919061234b565b6103d3565b60405161014d9190612c44565b60405180910390f35b61015e6104b5565b60405161016b9190612c5f565b60405180910390f35b61018e6004803603810190610189919061239d565b610547565b60405161019b9190612bdd565b60405180910390f35b6101be60048036038101906101b991906122c0565b6105cc565b005b6101da60048036038101906101d59190612166565b6106e4565b005b6101f660048036038101906101f19190612166565b610744565b005b610212600480360381019061020d919061239d565b610764565b60405161021f9190612bdd565b60405180910390f35b610242600480360381019061023d9190612101565b610816565b60405161024f9190612f01565b60405180910390f35b6102606108ce565b005b61026a610956565b6040516102779190612bdd565b60405180910390f35b610288610980565b6040516102959190612c5f565b60405180910390f35b6102b860048036038101906102b39190612230565b610a12565b005b6102d460048036038101906102cf91906121b5565b610a28565b005b6102f060048036038101906102eb919061239d565b610a8a565b6040516102fd9190612c5f565b60405180910390f35b610320600480360381019061031b919061239d565b610bdc565b60405161033296959493929190612f1c565b60405180910390f35b6103556004803603810190610350919061212a565b610cda565b6040516103629190612c44565b60405180910390f35b6103856004803603810190610380919061226c565b610d6e565b6040516103929190612f01565b60405180910390f35b6103b560048036038101906103b09190612101565b610f3a565b005b6103d160048036038101906103cc91906122fc565b611032565b005b60007f80ac58cd000000000000000000000000000000000000000000000000000000007bffffffffffffffffffffffffffffffffffffffffffffffffffffffff1916827bffffffffffffffffffffffffffffffffffffffffffffffffffffffff1916148061049e57507f5b5e139f000000000000000000000000000000000000000000000000000000007bffffffffffffffffffffffffffffffffffffffffffffffffffffffff1916827bffffffffffffffffffffffffffffffffffffffffffffffffffffffff1916145b806104ae57506104ad82611145565b5b9050919050565b6060600080546104c4906131db565b80601f01602080910402602001604051908101604052809291908181526020018280546104f0906131db565b801561053d5780601f106105125761010080835404028352916020019161053d565b820191906000526020600020905b81548152906001019060200180831161052057829003601f168201915b5050505050905090565b6000610552826111af565b610591576040517f08c379a000000000000000000000000000000000000000000000000000000000815260040161058890612e01565b60405180910390fd5b6004600083815260200190815260200160002060009054906101000a900473ffffffffffffffffffffffffffffffffffffffff169050919050565b60006105d782610764565b90508073ffffffffffffffffffffffffffffffffffffffff168373ffffffffffffffffffffffffffffffffffffffff161415610648576040517f08c379a000000000000000000000000000000000000000000000000000000000815260040161063f90612ea1565b60405180910390fd5b8073ffffffffffffffffffffffffffffffffffffffff1661066761121b565b73ffffffffffffffffffffffffffffffffffffffff16148061069657506106958161069061121b565b610cda565b5b6106d5576040517f08c379a00000000000000000000000000000000000000000000000000000000081526004016106cc90612d41565b60405180910390fd5b6106df8383611223565b505050565b6106f56106ef61121b565b826112dc565b610734576040517f08c379a000000000000000000000000000000000000000000000000000000000815260040161072b90612ee1565b60405180910390fd5b61073f8383836113ba565b505050565b61075f83838360405180602001604052806000815250610a28565b505050565b6000806002600084815260200190815260200160002060009054906101000a900473ffffffffffffffffffffffffffffffffffffffff169050600073ffffffffffffffffffffffffffffffffffffffff168173ffffffffffffffffffffffffffffffffffffffff16141561080d576040517f08c379a000000000000000000000000000000000000000000000000000000000815260040161080490612d81565b60405180910390fd5b80915050919050565b60008073ffffffffffffffffffffffffffffffffffffffff168273ffffffffffffffffffffffffffffffffffffffff161415610887576040517f08c379a000000000000000000000000000000000000000000000000000000000815260040161087e90612d61565b60405180910390fd5b600360008373ffffffffffffffffffffffffffffffffffffffff1673ffffffffffffffffffffffffffffffffffffffff168152602001908152602001600020549050919050565b6108d661121b565b73ffffffffffffffffffffffffffffffffffffffff166108f4610956565b73ffffffffffffffffffffffffffffffffffffffff161461094a576040517f08c379a000000000000000000000000000000000000000000000000000000000815260040161094190612e21565b60405180910390fd5b6109546000611616565b565b6000600760009054906101000a900473ffffffffffffffffffffffffffffffffffffffff16905090565b60606001805461098f906131db565b80601f01602080910402602001604051908101604052809291908181526020018280546109bb906131db565b8015610a085780601f106109dd57610100808354040283529160200191610a08565b820191906000526020600020905b8154815290600101906020018083116109eb57829003601f168201915b5050505050905090565b610a24610a1d61121b565b83836116dc565b5050565b610a39610a3361121b565b836112dc565b610a78576040517f08c379a0000000000000000000000000000000000000000000000000000000008152600401610a6f90612ee1565b60405180910390fd5b610a8484848484611849565b50505050565b6060610a95826111af565b610ad4576040517f08c379a0000000000000000000000000000000000000000000000000000000008152600401610acb90612de1565b60405180910390fd5b6000600660008481526020019081526020016000208054610af4906131db565b80601f0160208091040260200160405190810160405280929190818152602001828054610b20906131db565b8015610b6d5780601f10610b4257610100808354040283529160200191610b6d565b820191906000526020600020905b815481529060010190602001808311610b5057829003601f168201915b505050505090506000610b7e6118a5565b9050600081511415610b94578192505050610bd7565b600082511115610bc9578082604051602001610bb1929190612bb9565b60405160208183030381529060405292505050610bd7565b610bd2846118bc565b925050505b919050565b6009602052806000526040600020600091509050806000015490806001018054610c05906131db565b80601f0160208091040260200160405190810160405280929190818152602001828054610c31906131db565b8015610c7e5780601f10610c5357610100808354040283529160200191610c7e565b820191906000526020600020905b815481529060010190602001808311610c6157829003601f168201915b5050505050908060020160009054906101000a900473ffffffffffffffffffffffffffffffffffffffff16908060030154908060040160009054906101000a900460ff16908060040160019054906101000a900460ff16905086565b6000600560008473ffffffffffffffffffffffffffffffffffffffff1673ffffffffffffffffffffffffffffffffffffffff16815260200190815260200160002060008373ffffffffffffffffffffffffffffffffffffffff1673ffffffffffffffffffffffffffffffffffffffff16815260200190815260200160002060009054906101000a900460ff16905092915050565b6000610d7861121b565b73ffffffffffffffffffffffffffffffffffffffff16610d96610956565b73ffffffffffffffffffffffffffffffffffffffff1614610dec576040517f08c379a0000000000000000000000000000000000000000000000000000000008152600401610de390612e21565b60405180910390fd5b610df66008611963565b6000610e026008611979565b9050610e0e8482611987565b610e188184611b55565b6040518060c001604052808281526020018481526020018573ffffffffffffffffffffffffffffffffffffffff168152602001600081526020016000151581526020016000151581525060096000838152602001908152602001600020600082015181600001556020820151816001019080519060200190610e9b929190611f25565b5060408201518160020160006101000a81548173ffffffffffffffffffffffffffffffffffffffff021916908373ffffffffffffffffffffffffffffffffffffffff1602179055506060820151816003015560808201518160040160006101000a81548160ff02191690831515021790555060a08201518160040160016101000a81548160ff0219169083151502179055509050508091505092915050565b610f4261121b565b73ffffffffffffffffffffffffffffffffffffffff16610f60610956565b73ffffffffffffffffffffffffffffffffffffffff1614610fb6576040517f08c379a0000000000000000000000000000000000000000000000000000000008152600401610fad90612e21565b60405180910390fd5b600073ffffffffffffffffffffffffffffffffffffffff168173ffffffffffffffffffffffffffffffffffffffff161415611026576040517f08c379a000000000000000000000000000000000000000000000000000000000815260040161101d90612ca1565b60405180910390fd5b61102f81611616565b50565b61103b82610764565b73ffffffffffffffffffffffffffffffffffffffff163373ffffffffffffffffffffffffffffffffffffffff16146110a8576040517f08c379a000000000000000000000000000000000000000000000000000000000815260040161109f90612ec1565b60405180910390fd5b600081116110eb576040517f08c379a00000000000000000000000000000000000000000000000000000000081526004016110e290612e61565b60405180910390fd5b60016009600084815260200190815260200160002060040160006101000a81548160ff0219169083151502179055508060096000848152602001908152602001600020600301819055506111403384846113ba565b505050565b60007f01ffc9a7000000000000000000000000000000000000000000000000000000007bffffffffffffffffffffffffffffffffffffffffffffffffffffffff1916827bffffffffffffffffffffffffffffffffffffffffffffffffffffffff1916149050919050565b60008073ffffffffffffffffffffffffffffffffffffffff166002600084815260200190815260200160002060009054906101000a900473ffffffffffffffffffffffffffffffffffffffff1673ffffffffffffffffffffffffffffffffffffffff1614159050919050565b600033905090565b816004600083815260200190815260200160002060006101000a81548173ffffffffffffffffffffffffffffffffffffffff021916908373ffffffffffffffffffffffffffffffffffffffff160217905550808273ffffffffffffffffffffffffffffffffffffffff1661129683610764565b73ffffffffffffffffffffffffffffffffffffffff167f8c5be1e5ebec7d5bd14f71427d1e84f3dd0314c0f7b2291e5b200ac8c7c3b92560405160405180910390a45050565b60006112e7826111af565b611326576040517f08c379a000000000000000000000000000000000000000000000000000000000815260040161131d90612d21565b60405180910390fd5b600061133183610764565b90508073ffffffffffffffffffffffffffffffffffffffff168473ffffffffffffffffffffffffffffffffffffffff1614806113a057508373ffffffffffffffffffffffffffffffffffffffff1661138884610547565b73ffffffffffffffffffffffffffffffffffffffff16145b806113b157506113b08185610cda565b5b91505092915050565b8273ffffffffffffffffffffffffffffffffffffffff166113da82610764565b73ffffffffffffffffffffffffffffffffffffffff1614611430576040517f08c379a000000000000000000000000000000000000000000000000000000000815260040161142790612e41565b60405180910390fd5b600073ffffffffffffffffffffffffffffffffffffffff168273ffffffffffffffffffffffffffffffffffffffff1614156114a0576040517f08c379a000000000000000000000000000000000000000000000000000000000815260040161149790612ce1565b60405180910390fd5b6114ab838383611bc9565b6114b6600082611223565b6001600360008573ffffffffffffffffffffffffffffffffffffffff1673ffffffffffffffffffffffffffffffffffffffff168152602001908152602001600020600082825461150691906130df565b925050819055506001600360008473ffffffffffffffffffffffffffffffffffffffff1673ffffffffffffffffffffffffffffffffffffffff168152602001908152602001600020600082825461155d9190613058565b92505081905550816002600083815260200190815260200160002060006101000a81548173ffffffffffffffffffffffffffffffffffffffff021916908373ffffffffffffffffffffffffffffffffffffffff160217905550808273ffffffffffffffffffffffffffffffffffffffff168473ffffffffffffffffffffffffffffffffffffffff167fddf252ad1be2c89b69c2b068fc378daa952ba7f163c4a11628f55a4df523b3ef60405160405180910390a4505050565b6000600760009054906101000a900473ffffffffffffffffffffffffffffffffffffffff16905081600760006101000a81548173ffffffffffffffffffffffffffffffffffffffff021916908373ffffffffffffffffffffffffffffffffffffffff1602179055508173ffffffffffffffffffffffffffffffffffffffff168173ffffffffffffffffffffffffffffffffffffffff167f8be0079c531659141344cd1fd0a4f28419497f9722a3daafe3b4186f6b6457e060405160405180910390a35050565b8173ffffffffffffffffffffffffffffffffffffffff168373ffffffffffffffffffffffffffffffffffffffff16141561174b576040517f08c379a000000000000000000000000000000000000000000000000000000000815260040161174290612d01565b60405180910390fd5b80600560008573ffffffffffffffffffffffffffffffffffffffff1673ffffffffffffffffffffffffffffffffffffffff16815260200190815260200160002060008473ffffffffffffffffffffffffffffffffffffffff1673ffffffffffffffffffffffffffffffffffffffff16815260200190815260200160002060006101000a81548160ff0219169083151502179055508173ffffffffffffffffffffffffffffffffffffffff168373ffffffffffffffffffffffffffffffffffffffff167f17307eab39ab6107e8899845ad3d59bd9653f200f220920489ca2b5937696c318360405161183c9190612c44565b60405180910390a3505050565b6118548484846113ba565b61186084848484611bce565b61189f576040517f08c379a000000000000000000000000000000000000000000000000000000000815260040161189690612c81565b60405180910390fd5b50505050565b606060405180602001604052806000815250905090565b60606118c7826111af565b611906576040517f08c379a00000000000000000000000000000000000000000000000000000000081526004016118fd90612e81565b60405180910390fd5b60006119106118a5565b90506000815111611930576040518060200160405280600081525061195b565b8061193a84611d65565b60405160200161194b929190612bb9565b6040516020818303038152906040525b915050919050565b6001816000016000828254019250508190555050565b600081600001549050919050565b600073ffffffffffffffffffffffffffffffffffffffff168273ffffffffffffffffffffffffffffffffffffffff1614156119f7576040517f08c379a00000000000000000000000000000000000000000000000000000000081526004016119ee90612dc1565b60405180910390fd5b611a00816111af565b15611a40576040517f08c379a0000000000000000000000000000000000000000000000000000000008152600401611a3790612cc1565b60405180910390fd5b611a4c60008383611bc9565b6001600360008473ffffffffffffffffffffffffffffffffffffffff1673ffffffffffffffffffffffffffffffffffffffff1681526020019081526020016000206000828254611a9c9190613058565b92505081905550816002600083815260200190815260200160002060006101000a81548173ffffffffffffffffffffffffffffffffffffffff021916908373ffffffffffffffffffffffffffffffffffffffff160217905550808273ffffffffffffffffffffffffffffffffffffffff16600073ffffffffffffffffffffffffffffffffffffffff167fddf252ad1be2c89b69c2b068fc378daa952ba7f163c4a11628f55a4df523b3ef60405160405180910390a45050565b611b5e826111af565b611b9d576040517f08c379a0000000000000000000000000000000000000000000000000000000008152600401611b9490612da1565b60405180910390fd5b80600660008481526020019081526020016000209080519060200190611bc4929190611f25565b505050565b505050565b6000611bef8473ffffffffffffffffffffffffffffffffffffffff16611f12565b15611d58578373ffffffffffffffffffffffffffffffffffffffff1663150b7a02611c1861121b565b8786866040518563ffffffff1660e01b8152600401611c3a9493929190612bf8565b602060405180830381600087803b158015611c5457600080fd5b505af1925050508015611c8557506040513d601f19601f82011682018060405250810190611c829190612374565b60015b611d08573d8060008114611cb5576040519150601f19603f3d011682016040523d82523d6000602084013e611cba565b606091505b50600081511415611d00576040517f08c379a0000000000000000000000000000000000000000000000000000000008152600401611cf790612c81565b60405180910390fd5b805181602001fd5b63150b7a0260e01b7bffffffffffffffffffffffffffffffffffffffffffffffffffffffff1916817bffffffffffffffffffffffffffffffffffffffffffffffffffffffff191614915050611d5d565b600190505b949350505050565b60606000821415611dad576040518060400160405280600181526020017f30000000000000000000000000000000000000000000000000000000000000008152509050611f0d565b600082905060005b60008214611ddf578080611dc89061320d565b915050600a82611dd891906130ae565b9150611db5565b60008167ffffffffffffffff811115611e21577f4e487b7100000000000000000000000000000000000000000000000000000000600052604160045260246000fd5b6040519080825280601f01601f191660200182016040528015611e535781602001600182028036833780820191505090505b5090505b60008514611f0657600182611e6c91906130df565b9150600a85611e7b9190613256565b6030611e879190613058565b60f81b818381518110611ec3577f4e487b7100000000000000000000000000000000000000000000000000000000600052603260045260246000fd5b60200101907effffffffffffffffffffffffffffffffffffffffffffffffffffffffffffff1916908160001a905350600a85611eff91906130ae565b9450611e57565b8093505050505b919050565b600080823b905060008111915050919050565b828054611f31906131db565b90600052602060002090601f016020900481019282611f535760008555611f9a565b82601f10611f6c57805160ff1916838001178555611f9a565b82800160010185558215611f9a579182015b82811115611f99578251825591602001919060010190611f7e565b5b509050611fa79190611fab565b5090565b5b80821115611fc4576000816000905550600101611fac565b5090565b6000611fdb611fd684612fb5565b612f84565b905082815260208101848484011115611ff357600080fd5b611ffe848285613199565b509392505050565b600061201961201484612fe5565b612f84565b90508281526020810184848401111561203157600080fd5b61203c848285613199565b509392505050565b60008135905061205381613354565b92915050565b6000813590506120688161336b565b92915050565b60008135905061207d81613382565b92915050565b60008151905061209281613382565b92915050565b600082601f8301126120a957600080fd5b81356120b9848260208601611fc8565b91505092915050565b600082601f8301126120d357600080fd5b81356120e3848260208601612006565b91505092915050565b6000813590506120fb81613399565b92915050565b60006020828403121561211357600080fd5b600061212184828501612044565b91505092915050565b6000806040838503121561213d57600080fd5b600061214b85828601612044565b925050602061215c85828601612044565b9150509250929050565b60008060006060848603121561217b57600080fd5b600061218986828701612044565b935050602061219a86828701612044565b92505060406121ab868287016120ec565b9150509250925092565b600080600080608085870312156121cb57600080fd5b60006121d987828801612044565b94505060206121ea87828801612044565b93505060406121fb878288016120ec565b925050606085013567ffffffffffffffff81111561221857600080fd5b61222487828801612098565b91505092959194509250565b6000806040838503121561224357600080fd5b600061225185828601612044565b925050602061226285828601612059565b9150509250929050565b6000806040838503121561227f57600080fd5b600061228d85828601612044565b925050602083013567ffffffffffffffff8111156122aa57600080fd5b6122b6858286016120c2565b9150509250929050565b600080604083850312156122d357600080fd5b60006122e185828601612044565b92505060206122f2858286016120ec565b9150509250929050565b60008060006060848603121561231157600080fd5b600061231f86828701612044565b9350506020612330868287016120ec565b9250506040612341868287016120ec565b9150509250925092565b60006020828403121561235d57600080fd5b600061236b8482850161206e565b91505092915050565b60006020828403121561238657600080fd5b600061239484828501612083565b91505092915050565b6000602082840312156123af57600080fd5b60006123bd848285016120ec565b91505092915050565b6123cf81613125565b82525050565b6123de81613113565b82525050565b6123ed81613137565b82525050565b60006123fe82613015565b612408818561302b565b93506124188185602086016131a8565b61242181613343565b840191505092915050565b600061243782613020565b612441818561303c565b93506124518185602086016131a8565b61245a81613343565b840191505092915050565b600061247082613020565b61247a818561304d565b935061248a8185602086016131a8565b80840191505092915050565b60006124a360328361303c565b91507f4552433732313a207472616e7366657220746f206e6f6e20455243373231526560008301527f63656976657220696d706c656d656e74657200000000000000000000000000006020830152604082019050919050565b600061250960268361303c565b91507f4f776e61626c653a206e6577206f776e657220697320746865207a65726f206160008301527f64647265737300000000000000000000000000000000000000000000000000006020830152604082019050919050565b600061256f601c8361303c565b91507f4552433732313a20746f6b656e20616c7265616479206d696e746564000000006000830152602082019050919050565b60006125af60248361303c565b91507f4552433732313a207472616e7366657220746f20746865207a65726f2061646460008301527f72657373000000000000000000000000000000000000000000000000000000006020830152604082019050919050565b600061261560198361303c565b91507f4552433732313a20617070726f766520746f2063616c6c6572000000000000006000830152602082019050919050565b6000612655602c8361303c565b91507f4552433732313a206f70657261746f7220717565727920666f72206e6f6e657860008301527f697374656e7420746f6b656e00000000000000000000000000000000000000006020830152604082019050919050565b60006126bb60388361303c565b91507f4552433732313a20617070726f76652063616c6c6572206973206e6f74206f7760008301527f6e6572206e6f7220617070726f76656420666f7220616c6c00000000000000006020830152604082019050919050565b6000612721602a8361303c565b91507f4552433732313a2062616c616e636520717565727920666f7220746865207a6560008301527f726f2061646472657373000000000000000000000000000000000000000000006020830152604082019050919050565b600061278760298361303c565b91507f4552433732313a206f776e657220717565727920666f72206e6f6e657869737460008301527f656e7420746f6b656e00000000000000000000000000000000000000000000006020830152604082019050919050565b60006127ed602e8361303c565b91507f45524337323155524953746f726167653a2055524920736574206f66206e6f6e60008301527f6578697374656e7420746f6b656e0000000000000000000000000000000000006020830152604082019050919050565b600061285360208361303c565b91507f4552433732313a206d696e7420746f20746865207a65726f20616464726573736000830152602082019050919050565b600061289360318361303c565b91507f45524337323155524953746f726167653a2055524920717565727920666f722060008301527f6e6f6e6578697374656e7420746f6b656e0000000000000000000000000000006020830152604082019050919050565b60006128f9602c8361303c565b91507f4552433732313a20617070726f76656420717565727920666f72206e6f6e657860008301527f697374656e7420746f6b656e00000000000000000000000000000000000000006020830152604082019050919050565b600061295f60208361303c565b91507f4f776e61626c653a2063616c6c6572206973206e6f7420746865206f776e65726000830152602082019050919050565b600061299f60298361303c565b91507f4552433732313a207472616e73666572206f6620746f6b656e2074686174206960008301527f73206e6f74206f776e00000000000000000000000000000000000000000000006020830152604082019050919050565b6000612a05600a8361303c565b91507f5072696365207a65726f000000000000000000000000000000000000000000006000830152602082019050919050565b6000612a45602f8361303c565b91507f4552433732314d657461646174613a2055524920717565727920666f72206e6f60008301527f6e6578697374656e7420746f6b656e00000000000000000000000000000000006020830152604082019050919050565b6000612aab60218361303c565b91507f4552433732313a20617070726f76616c20746f2063757272656e74206f776e6560008301527f72000000000000000000000000000000000000000000000000000000000000006020830152604082019050919050565b6000612b1160178361303c565b91507f4e6f74206f776e6572206f66207468697320746f6b656e0000000000000000006000830152602082019050919050565b6000612b5160318361303c565b91507f4552433732313a207472616e736665722063616c6c6572206973206e6f74206f60008301527f776e6572206e6f7220617070726f7665640000000000000000000000000000006020830152604082019050919050565b612bb38161318f565b82525050565b6000612bc58285612465565b9150612bd18284612465565b91508190509392505050565b6000602082019050612bf260008301846123d5565b92915050565b6000608082019050612c0d60008301876123d5565b612c1a60208301866123d5565b612c276040830185612baa565b8181036060830152612c3981846123f3565b905095945050505050565b6000602082019050612c5960008301846123e4565b92915050565b60006020820190508181036000830152612c79818461242c565b905092915050565b60006020820190508181036000830152612c9a81612496565b9050919050565b60006020820190508181036000830152612cba816124fc565b9050919050565b60006020820190508181036000830152612cda81612562565b9050919050565b60006020820190508181036000830152612cfa816125a2565b9050919050565b60006020820190508181036000830152612d1a81612608565b9050919050565b60006020820190508181036000830152612d3a81612648565b9050919050565b60006020820190508181036000830152612d5a816126ae565b9050919050565b60006020820190508181036000830152612d7a81612714565b9050919050565b60006020820190508181036000830152612d9a8161277a565b9050919050565b60006020820190508181036000830152612dba816127e0565b9050919050565b60006020820190508181036000830152612dda81612846565b9050919050565b60006020820190508181036000830152612dfa81612886565b9050919050565b60006020820190508181036000830152612e1a816128ec565b9050919050565b60006020820190508181036000830152612e3a81612952565b9050919050565b60006020820190508181036000830152612e5a81612992565b9050919050565b60006020820190508181036000830152612e7a816129f8565b9050919050565b60006020820190508181036000830152612e9a81612a38565b9050919050565b60006020820190508181036000830152612eba81612a9e565b9050919050565b60006020820190508181036000830152612eda81612b04565b9050919050565b60006020820190508181036000830152612efa81612b44565b9050919050565b6000602082019050612f166000830184612baa565b92915050565b600060c082019050612f316000830189612baa565b8181036020830152612f43818861242c565b9050612f5260408301876123c6565b612f5f6060830186612baa565b612f6c60808301856123e4565b612f7960a08301846123e4565b979650505050505050565b6000604051905081810181811067ffffffffffffffff82111715612fab57612faa613314565b5b8060405250919050565b600067ffffffffffffffff821115612fd057612fcf613314565b5b601f19601f8301169050602081019050919050565b600067ffffffffffffffff82111561300057612fff613314565b5b601f19601f8301169050602081019050919050565b600081519050919050565b600081519050919050565b600082825260208201905092915050565b600082825260208201905092915050565b600081905092915050565b60006130638261318f565b915061306e8361318f565b9250827fffffffffffffffffffffffffffffffffffffffffffffffffffffffffffffffff038211156130a3576130a2613287565b5b828201905092915050565b60006130b98261318f565b91506130c48361318f565b9250826130d4576130d36132b6565b5b828204905092915050565b60006130ea8261318f565b91506130f58361318f565b92508282101561310857613107613287565b5b828203905092915050565b600061311e8261316f565b9050919050565b60006131308261316f565b9050919050565b60008115159050919050565b60007fffffffff0000000000000000000000000000000000000000000000000000000082169050919050565b600073ffffffffffffffffffffffffffffffffffffffff82169050919050565b6000819050919050565b82818337600083830152505050565b60005b838110156131c65780820151818401526020810190506131ab565b838111156131d5576000848401525b50505050565b600060028204905060018216806131f357607f821691505b60208210811415613207576132066132e5565b5b50919050565b60006132188261318f565b91507fffffffffffffffffffffffffffffffffffffffffffffffffffffffffffffffff82141561324b5761324a613287565b5b600182019050919050565b60006132618261318f565b915061326c8361318f565b92508261327c5761327b6132b6565b5b828206905092915050565b7f4e487b7100000000000000000000000000000000000000000000000000000000600052601160045260246000fd5b7f4e487b7100000000000000000000000000000000000000000000000000000000600052601260045260246000fd5b7f4e487b7100000000000000000000000000000000000000000000000000000000600052602260045260246000fd5b7f4e487b7100000000000000000000000000000000000000000000000000000000600052604160045260246000fd5b6000601f19601f8301169050919050565b61335d81613113565b811461336857600080fd5b50565b61337481613137565b811461337f57600080fd5b50565b61338b81613143565b811461339657600080fd5b50565b6133a28161318f565b81146133ad57600080fd5b5056fea2646970667358221220d7208d24869aff78bc75fa566144c754986a4e451a7723424e48cc12d72983c064736f6c63430008000033",
  "linkReferences": {},
  "deployedLinkReferences": {}
}