{
  "_format": "hh-sol-artifact-1",
  "contractName": "RuNFT",
  "sourceName": "contracts/RuNFT.sol",
  "abi": [
    {
      "inputs": [],
      "stateMutability": "nonpayable",
      "type": "constructor"
    },
    {
      "anonymous": false,
      "inputs": [
        {
          "indexed": true,
          "internalType": "address",
          "name": "owner",
          "type": "address"
        },
        {
          "indexed": true,
          "internalType": "address",
          "name": "approved",
          "type": "address"
        },
        {
          "indexed": true,
          "internalType": "uint256",
          "name": "tokenId",
          "type": "uint256"
        }
      ],
      "name": "Approval",
      "type": "event"
    },
    {
      "anonymous": false,
      "inputs": [
        {
          "indexed": true,
          "internalType": "address",
          "name": "owner",
          "type": "address"
        },
        {
          "indexed": true,
          "internalType": "address",
          "name": "operator",
          "type": "address"
        },
        {
          "indexed": false,
          "internalType": "bool",
          "name": "approved",
          "type": "bool"
        }
      ],
      "name": "ApprovalForAll",
      "type": "event"
    },
    {
      "anonymous": false,
      "inputs": [
        {
          "indexed": true,
          "internalType": "address",
          "name": "previousOwner",
          "type": "address"
        },
        {
          "indexed": true,
          "internalType": "address",
          "name": "newOwner",
          "type": "address"
        }
      ],
      "name": "OwnershipTransferred",
      "type": "event"
    },
    {
      "anonymous": false,
      "inputs": [
        {
          "indexed": false,
          "internalType": "address",
          "name": "",
          "type": "address"
        },
        {
          "indexed": false,
          "internalType": "uint256",
          "name": "",
          "type": "uint256"
        }
      ],
      "name": "Received",
      "type": "event"
    },
    {
      "anonymous": false,
      "inputs": [
        {
          "indexed": true,
          "internalType": "address",
          "name": "from",
          "type": "address"
        },
        {
          "indexed": true,
          "internalType": "address",
          "name": "to",
          "type": "address"
        },
        {
          "indexed": true,
          "internalType": "uint256",
          "name": "tokenId",
          "type": "uint256"
        }
      ],
      "name": "Transfer",
      "type": "event"
    },
    {
      "inputs": [
        {
          "internalType": "address",
          "name": "to",
          "type": "address"
        },
        {
          "internalType": "uint256",
          "name": "tokenId",
          "type": "uint256"
        }
      ],
      "name": "approve",
      "outputs": [],
      "stateMutability": "nonpayable",
      "type": "function"
    },
    {
      "inputs": [
        {
          "internalType": "address",
          "name": "owner",
          "type": "address"
        }
      ],
      "name": "balanceOf",
      "outputs": [
        {
          "internalType": "uint256",
          "name": "",
          "type": "uint256"
        }
      ],
      "stateMutability": "view",
      "type": "function"
    },
    {
      "inputs": [
        {
          "internalType": "address",
          "name": "buyer",
          "type": "address"
        },
        {
          "internalType": "uint256",
          "name": "tokenId",
          "type": "uint256"
        }
      ],
      "name": "buyNFT",
      "outputs": [],
      "stateMutability": "payable",
      "type": "function"
    },
    {
      "inputs": [
        {
          "internalType": "uint256",
          "name": "tokenId",
          "type": "uint256"
        }
      ],
      "name": "getApproved",
      "outputs": [
        {
          "internalType": "address",
          "name": "",
          "type": "address"
        }
      ],
      "stateMutability": "view",
      "type": "function"
    },
    {
      "inputs": [
        {
          "internalType": "uint256",
          "name": "",
          "type": "uint256"
        }
      ],
      "name": "idToMarketItem",
      "outputs": [
        {
          "internalType": "uint256",
          "name": "itemId",
          "type": "uint256"
        },
        {
          "internalType": "string",
          "name": "tokenURI",
          "type": "string"
        },
        {
          "internalType": "address payable",
          "name": "owner",
          "type": "address"
        },
        {
          "internalType": "uint256",
          "name": "price",
          "type": "uint256"
        },
        {
          "internalType": "bool",
          "name": "sell",
          "type": "bool"
        }
      ],
      "stateMutability": "view",
      "type": "function"
    },
    {
      "inputs": [
        {
          "internalType": "address",
          "name": "owner",
          "type": "address"
        },
        {
          "internalType": "address",
          "name": "operator",
          "type": "address"
        }
      ],
      "name": "isApprovedForAll",
      "outputs": [
        {
          "internalType": "bool",
          "name": "",
          "type": "bool"
        }
      ],
      "stateMutability": "view",
      "type": "function"
    },
    {
      "inputs": [
        {
          "internalType": "address",
          "name": "recipient",
          "type": "address"
        },
        {
          "internalType": "string",
          "name": "tokenURI",
          "type": "string"
        }
      ],
      "name": "mintNFT",
      "outputs": [
        {
          "internalType": "uint256",
          "name": "",
          "type": "uint256"
        }
      ],
      "stateMutability": "nonpayable",
      "type": "function"
    },
    {
      "inputs": [],
      "name": "name",
      "outputs": [
        {
          "internalType": "string",
          "name": "",
          "type": "string"
        }
      ],
      "stateMutability": "view",
      "type": "function"
    },
    {
      "inputs": [],
      "name": "owner",
      "outputs": [
        {
          "internalType": "address",
          "name": "",
          "type": "address"
        }
      ],
      "stateMutability": "view",
      "type": "function"
    },
    {
      "inputs": [
        {
          "internalType": "uint256",
          "name": "tokenId",
          "type": "uint256"
        }
      ],
      "name": "ownerOf",
      "outputs": [
        {
          "internalType": "address",
          "name": "",
          "type": "address"
        }
      ],
      "stateMutability": "view",
      "type": "function"
    },
    {
      "inputs": [],
      "name": "renounceOwnership",
      "outputs": [],
      "stateMutability": "nonpayable",
      "type": "function"
    },
    {
      "inputs": [
        {
          "internalType": "address",
          "name": "from",
          "type": "address"
        },
        {
          "internalType": "address",
          "name": "to",
          "type": "address"
        },
        {
          "internalType": "uint256",
          "name": "tokenId",
          "type": "uint256"
        }
      ],
      "name": "safeTransferFrom",
      "outputs": [],
      "stateMutability": "nonpayable",
      "type": "function"
    },
    {
      "inputs": [
        {
          "internalType": "address",
          "name": "from",
          "type": "address"
        },
        {
          "internalType": "address",
          "name": "to",
          "type": "address"
        },
        {
          "internalType": "uint256",
          "name": "tokenId",
          "type": "uint256"
        },
        {
          "internalType": "bytes",
          "name": "_data",
          "type": "bytes"
        }
      ],
      "name": "safeTransferFrom",
      "outputs": [],
      "stateMutability": "nonpayable",
      "type": "function"
    },
    {
      "inputs": [
        {
          "internalType": "uint256",
          "name": "tokenId",
          "type": "uint256"
        },
        {
          "internalType": "uint256",
          "name": "price",
          "type": "uint256"
        }
      ],
      "name": "sellNFT",
      "outputs": [],
      "stateMutability": "nonpayable",
      "type": "function"
    },
    {
      "inputs": [
        {
          "internalType": "address",
          "name": "operator",
          "type": "address"
        },
        {
          "internalType": "bool",
          "name": "approved",
          "type": "bool"
        }
      ],
      "name": "setApprovalForAll",
      "outputs": [],
      "stateMutability": "nonpayable",
      "type": "function"
    },
    {
      "inputs": [
        {
          "internalType": "bytes4",
          "name": "interfaceId",
          "type": "bytes4"
        }
      ],
      "name": "supportsInterface",
      "outputs": [
        {
          "internalType": "bool",
          "name": "",
          "type": "bool"
        }
      ],
      "stateMutability": "view",
      "type": "function"
    },
    {
      "inputs": [],
      "name": "symbol",
      "outputs": [
        {
          "internalType": "string",
          "name": "",
          "type": "string"
        }
      ],
      "stateMutability": "view",
      "type": "function"
    },
    {
      "inputs": [
        {
          "internalType": "uint256",
          "name": "tokenId",
          "type": "uint256"
        }
      ],
      "name": "tokenURI",
      "outputs": [
        {
          "internalType": "string",
          "name": "",
          "type": "string"
        }
      ],
      "stateMutability": "view",
      "type": "function"
    },
    {
      "inputs": [],
      "name": "totalSupply",
      "outputs": [
        {
          "internalType": "uint256",
          "name": "",
          "type": "uint256"
        }
      ],
      "stateMutability": "view",
      "type": "function"
    },
    {
      "inputs": [
        {
          "internalType": "address",
          "name": "from",
          "type": "address"
        },
        {
          "internalType": "address",
          "name": "to",
          "type": "address"
        },
        {
          "internalType": "uint256",
          "name": "tokenId",
          "type": "uint256"
        }
      ],
      "name": "transferFrom",
      "outputs": [],
      "stateMutability": "nonpayable",
      "type": "function"
    },
    {
      "inputs": [
        {
          "internalType": "address",
          "name": "newOwner",
          "type": "address"
        }
      ],
      "name": "transferOwnership",
      "outputs": [],
      "stateMutability": "nonpayable",
      "type": "function"
    },
    {
      "stateMutability": "payable",
      "type": "receive"
    }
  ],
  "bytecode": "0x60806040523480156200001157600080fd5b506040518060400160405280600581526020017f52754e46540000000000000000000000000000000000000000000000000000008152506040518060400160405280600381526020017f4e46540000000000000000000000000000000000000000000000000000000000815250816000908051906020019062000096929190620001a6565b508060019080519060200190620000af929190620001a6565b505050620000d2620000c6620000d860201b60201c565b620000e060201b60201c565b620002bb565b600033905090565b6000600760009054906101000a900473ffffffffffffffffffffffffffffffffffffffff16905081600760006101000a81548173ffffffffffffffffffffffffffffffffffffffff021916908373ffffffffffffffffffffffffffffffffffffffff1602179055508173ffffffffffffffffffffffffffffffffffffffff168173ffffffffffffffffffffffffffffffffffffffff167f8be0079c531659141344cd1fd0a4f28419497f9722a3daafe3b4186f6b6457e060405160405180910390a35050565b828054620001b49062000256565b90600052602060002090601f016020900481019282620001d8576000855562000224565b82601f10620001f357805160ff191683800117855562000224565b8280016001018555821562000224579182015b828111156200022357825182559160200191906001019062000206565b5b50905062000233919062000237565b5090565b5b808211156200025257600081600090555060010162000238565b5090565b600060028204905060018216806200026f57607f821691505b602082108114156200028657620002856200028c565b5b50919050565b7f4e487b7100000000000000000000000000000000000000000000000000000000600052602260045260246000fd5b61395e80620002cb6000396000f3fe60806040526004361061012e5760003560e01c80638da5cb5b116100ab578063b88d4fde1161006f578063b88d4fde14610413578063c87b56dd1461043c578063e61a70c014610479578063e985e9c5146104ba578063eacabe14146104f7578063f2fde38b146105345761016e565b80638da5cb5b1461034f57806391a48a1e1461037a57806395d89b41146103a3578063a22cb465146103ce578063a82ba76f146103f75761016e565b806323b872dd116100f257806323b872dd1461026c57806342842e0e146102955780636352211e146102be57806370a08231146102fb578063715018a6146103385761016e565b806301ffc9a71461017357806306fdde03146101b0578063081812fc146101db578063095ea7b31461021857806318160ddd146102415761016e565b3661016e577f88a5966d370b9919b20f3e2c13ff65706f196a4e32cc2c12bf57088f885258743334604051610164929190613196565b60405180910390a1005b600080fd5b34801561017f57600080fd5b5061019a60048036038101906101959190612832565b61055d565b6040516101a791906131bf565b60405180910390f35b3480156101bc57600080fd5b506101c561063f565b6040516101d291906131da565b60405180910390f35b3480156101e757600080fd5b5061020260048036038101906101fd9190612884565b6106d1565b60405161020f919061312f565b60405180910390f35b34801561022457600080fd5b5061023f600480360381019061023a91906127f6565b610756565b005b34801561024d57600080fd5b5061025661086e565b604051610263919061347c565b60405180910390f35b34801561027857600080fd5b50610293600480360381019061028e919061269c565b61087f565b005b3480156102a157600080fd5b506102bc60048036038101906102b7919061269c565b6108df565b005b3480156102ca57600080fd5b506102e560048036038101906102e09190612884565b6108ff565b6040516102f2919061312f565b60405180910390f35b34801561030757600080fd5b50610322600480360381019061031d9190612637565b6109b1565b60405161032f919061347c565b60405180910390f35b34801561034457600080fd5b5061034d610a69565b005b34801561035b57600080fd5b50610364610af1565b604051610371919061312f565b60405180910390f35b34801561038657600080fd5b506103a1600480360381019061039c91906128ad565b610b1b565b005b3480156103af57600080fd5b506103b8610c2d565b6040516103c591906131da565b60405180910390f35b3480156103da57600080fd5b506103f560048036038101906103f09190612766565b610cbf565b005b610411600480360381019061040c91906127f6565b610cd5565b005b34801561041f57600080fd5b5061043a600480360381019061043591906126eb565b6110ad565b005b34801561044857600080fd5b50610463600480360381019061045e9190612884565b61110f565b60405161047091906131da565b60405180910390f35b34801561048557600080fd5b506104a0600480360381019061049b9190612884565b611261565b6040516104b1959493929190613497565b60405180910390f35b3480156104c657600080fd5b506104e160048036038101906104dc9190612660565b61134c565b6040516104ee91906131bf565b60405180910390f35b34801561050357600080fd5b5061051e600480360381019061051991906127a2565b6113e0565b60405161052b919061347c565b60405180910390f35b34801561054057600080fd5b5061055b60048036038101906105569190612637565b611583565b005b60007f80ac58cd000000000000000000000000000000000000000000000000000000007bffffffffffffffffffffffffffffffffffffffffffffffffffffffff1916827bffffffffffffffffffffffffffffffffffffffffffffffffffffffff1916148061062857507f5b5e139f000000000000000000000000000000000000000000000000000000007bffffffffffffffffffffffffffffffffffffffffffffffffffffffff1916827bffffffffffffffffffffffffffffffffffffffffffffffffffffffff1916145b8061063857506106378261167b565b5b9050919050565b60606000805461064e90613753565b80601f016020809104026020016040519081016040528092919081815260200182805461067a90613753565b80156106c75780601f1061069c576101008083540402835291602001916106c7565b820191906000526020600020905b8154815290600101906020018083116106aa57829003601f168201915b5050505050905090565b60006106dc826116e5565b61071b576040517f08c379a00000000000000000000000000000000000000000000000000000000081526004016107129061337c565b60405180910390fd5b6004600083815260200190815260200160002060009054906101000a900473ffffffffffffffffffffffffffffffffffffffff169050919050565b6000610761826108ff565b90508073ffffffffffffffffffffffffffffffffffffffff168373ffffffffffffffffffffffffffffffffffffffff1614156107d2576040517f08c379a00000000000000000000000000000000000000000000000000000000081526004016107c99061341c565b60405180910390fd5b8073ffffffffffffffffffffffffffffffffffffffff166107f1611751565b73ffffffffffffffffffffffffffffffffffffffff161480610820575061081f8161081a611751565b61134c565b5b61085f576040517f08c379a0000000000000000000000000000000000000000000000000000000008152600401610856906132bc565b60405180910390fd5b6108698383611759565b505050565b600061087a6008611812565b905090565b61089061088a611751565b82611820565b6108cf576040517f08c379a00000000000000000000000000000000000000000000000000000000081526004016108c69061345c565b60405180910390fd5b6108da8383836118fe565b505050565b6108fa838383604051806020016040528060008152506110ad565b505050565b6000806002600084815260200190815260200160002060009054906101000a900473ffffffffffffffffffffffffffffffffffffffff169050600073ffffffffffffffffffffffffffffffffffffffff168173ffffffffffffffffffffffffffffffffffffffff1614156109a8576040517f08c379a000000000000000000000000000000000000000000000000000000000815260040161099f906132fc565b60405180910390fd5b80915050919050565b60008073ffffffffffffffffffffffffffffffffffffffff168273ffffffffffffffffffffffffffffffffffffffff161415610a22576040517f08c379a0000000000000000000000000000000000000000000000000000000008152600401610a19906132dc565b60405180910390fd5b600360008373ffffffffffffffffffffffffffffffffffffffff1673ffffffffffffffffffffffffffffffffffffffff168152602001908152602001600020549050919050565b610a71611751565b73ffffffffffffffffffffffffffffffffffffffff16610a8f610af1565b73ffffffffffffffffffffffffffffffffffffffff1614610ae5576040517f08c379a0000000000000000000000000000000000000000000000000000000008152600401610adc9061339c565b60405180910390fd5b610aef6000611b5a565b565b6000600760009054906101000a900473ffffffffffffffffffffffffffffffffffffffff16905090565b610b24826108ff565b73ffffffffffffffffffffffffffffffffffffffff163373ffffffffffffffffffffffffffffffffffffffff1614610b91576040517f08c379a0000000000000000000000000000000000000000000000000000000008152600401610b889061343c565b60405180910390fd5b60008111610bd4576040517f08c379a0000000000000000000000000000000000000000000000000000000008152600401610bcb906133dc565b60405180910390fd5b60016009600084815260200190815260200160002060040160006101000a81548160ff021916908315150217905550806009600084815260200190815260200160002060030181905550610c293330846118fe565b5050565b606060018054610c3c90613753565b80601f0160208091040260200160405190810160405280929190818152602001828054610c6890613753565b8015610cb55780601f10610c8a57610100808354040283529160200191610cb5565b820191906000526020600020905b815481529060010190602001808311610c9857829003601f168201915b5050505050905090565b610cd1610cca611751565b8383611c20565b5050565b610cdd611751565b73ffffffffffffffffffffffffffffffffffffffff16610cfb610af1565b73ffffffffffffffffffffffffffffffffffffffff1614610d51576040517f08c379a0000000000000000000000000000000000000000000000000000000008152600401610d489061339c565b60405180910390fd5b60006040518060400160405280601e81526020017f4e6f7420616c6c6f77656420746f20627579207468697320746f6b656e2e00008152509050610d94826108ff565b73ffffffffffffffffffffffffffffffffffffffff168373ffffffffffffffffffffffffffffffffffffffff1614158190610e05576040517f08c379a0000000000000000000000000000000000000000000000000000000008152600401610dfc91906131da565b60405180910390fd5b50600115156009600084815260200190815260200160002060040160009054906101000a900460ff161515148190610e73576040517f08c379a0000000000000000000000000000000000000000000000000000000008152600401610e6a91906131da565b60405180910390fd5b5060006009600084815260200190815260200160002060030154905060006009600085815260200190815260200160002060020160009054906101000a900473ffffffffffffffffffffffffffffffffffffffff16905060008173ffffffffffffffffffffffffffffffffffffffff1683604051610ef09061311a565b60006040518083038185875af1925050503d8060008114610f2d576040519150601f19603f3d011682016040523d82523d6000602084013e610f32565b606091505b50509050808490610f79576040517f08c379a0000000000000000000000000000000000000000000000000000000008152600401610f7091906131da565b60405180910390fd5b50610f853387876118fe565b6000610f90866108ff565b90508673ffffffffffffffffffffffffffffffffffffffff168173ffffffffffffffffffffffffffffffffffffffff16148590611003576040517f08c379a0000000000000000000000000000000000000000000000000000000008152600401610ffa91906131da565b60405180910390fd5b5060006009600088815260200190815260200160002060040160006101000a81548160ff02191690831515021790555060006009600088815260200190815260200160002060030181905550866009600088815260200190815260200160002060020160006101000a81548173ffffffffffffffffffffffffffffffffffffffff021916908373ffffffffffffffffffffffffffffffffffffffff16021790555050505050505050565b6110be6110b8611751565b83611820565b6110fd576040517f08c379a00000000000000000000000000000000000000000000000000000000081526004016110f49061345c565b60405180910390fd5b61110984848484611d8d565b50505050565b606061111a826116e5565b611159576040517f08c379a00000000000000000000000000000000000000000000000000000000081526004016111509061335c565b60405180910390fd5b600060066000848152602001908152602001600020805461117990613753565b80601f01602080910402602001604051908101604052809291908181526020018280546111a590613753565b80156111f25780601f106111c7576101008083540402835291602001916111f2565b820191906000526020600020905b8154815290600101906020018083116111d557829003601f168201915b505050505090506000611203611de9565b905060008151141561121957819250505061125c565b60008251111561124e5780826040516020016112369291906130f6565b6040516020818303038152906040529250505061125c565b61125784611e00565b925050505b919050565b600960205280600052604060002060009150905080600001549080600101805461128a90613753565b80601f01602080910402602001604051908101604052809291908181526020018280546112b690613753565b80156113035780601f106112d857610100808354040283529160200191611303565b820191906000526020600020905b8154815290600101906020018083116112e657829003601f168201915b5050505050908060020160009054906101000a900473ffffffffffffffffffffffffffffffffffffffff16908060030154908060040160009054906101000a900460ff16905085565b6000600560008473ffffffffffffffffffffffffffffffffffffffff1673ffffffffffffffffffffffffffffffffffffffff16815260200190815260200160002060008373ffffffffffffffffffffffffffffffffffffffff1673ffffffffffffffffffffffffffffffffffffffff16815260200190815260200160002060009054906101000a900460ff16905092915050565b60006113ea611751565b73ffffffffffffffffffffffffffffffffffffffff16611408610af1565b73ffffffffffffffffffffffffffffffffffffffff161461145e576040517f08c379a00000000000000000000000000000000000000000000000000000000081526004016114559061339c565b60405180910390fd5b6114686008611ea7565b60006114746008611812565b90506114808482611ebd565b61148a818461208b565b6040518060a001604052808281526020018481526020018573ffffffffffffffffffffffffffffffffffffffff16815260200160008152602001600015158152506009600083815260200190815260200160002060008201518160000155602082015181600101908051906020019061150492919061245b565b5060408201518160020160006101000a81548173ffffffffffffffffffffffffffffffffffffffff021916908373ffffffffffffffffffffffffffffffffffffffff1602179055506060820151816003015560808201518160040160006101000a81548160ff0219169083151502179055509050508091505092915050565b61158b611751565b73ffffffffffffffffffffffffffffffffffffffff166115a9610af1565b73ffffffffffffffffffffffffffffffffffffffff16146115ff576040517f08c379a00000000000000000000000000000000000000000000000000000000081526004016115f69061339c565b60405180910390fd5b600073ffffffffffffffffffffffffffffffffffffffff168173ffffffffffffffffffffffffffffffffffffffff16141561166f576040517f08c379a00000000000000000000000000000000000000000000000000000000081526004016116669061321c565b60405180910390fd5b61167881611b5a565b50565b60007f01ffc9a7000000000000000000000000000000000000000000000000000000007bffffffffffffffffffffffffffffffffffffffffffffffffffffffff1916827bffffffffffffffffffffffffffffffffffffffffffffffffffffffff1916149050919050565b60008073ffffffffffffffffffffffffffffffffffffffff166002600084815260200190815260200160002060009054906101000a900473ffffffffffffffffffffffffffffffffffffffff1673ffffffffffffffffffffffffffffffffffffffff1614159050919050565b600033905090565b816004600083815260200190815260200160002060006101000a81548173ffffffffffffffffffffffffffffffffffffffff021916908373ffffffffffffffffffffffffffffffffffffffff160217905550808273ffffffffffffffffffffffffffffffffffffffff166117cc836108ff565b73ffffffffffffffffffffffffffffffffffffffff167f8c5be1e5ebec7d5bd14f71427d1e84f3dd0314c0f7b2291e5b200ac8c7c3b92560405160405180910390a45050565b600081600001549050919050565b600061182b826116e5565b61186a576040517f08c379a00000000000000000000000000000000000000000000000000000000081526004016118619061329c565b60405180910390fd5b6000611875836108ff565b90508073ffffffffffffffffffffffffffffffffffffffff168473ffffffffffffffffffffffffffffffffffffffff1614806118e457508373ffffffffffffffffffffffffffffffffffffffff166118cc846106d1565b73ffffffffffffffffffffffffffffffffffffffff16145b806118f557506118f4818561134c565b5b91505092915050565b8273ffffffffffffffffffffffffffffffffffffffff1661191e826108ff565b73ffffffffffffffffffffffffffffffffffffffff1614611974576040517f08c379a000000000000000000000000000000000000000000000000000000000815260040161196b906133bc565b60405180910390fd5b600073ffffffffffffffffffffffffffffffffffffffff168273ffffffffffffffffffffffffffffffffffffffff1614156119e4576040517f08c379a00000000000000000000000000000000000000000000000000000000081526004016119db9061325c565b60405180910390fd5b6119ef8383836120ff565b6119fa600082611759565b6001600360008573ffffffffffffffffffffffffffffffffffffffff1673ffffffffffffffffffffffffffffffffffffffff1681526020019081526020016000206000828254611a4a9190613657565b925050819055506001600360008473ffffffffffffffffffffffffffffffffffffffff1673ffffffffffffffffffffffffffffffffffffffff1681526020019081526020016000206000828254611aa191906135d0565b92505081905550816002600083815260200190815260200160002060006101000a81548173ffffffffffffffffffffffffffffffffffffffff021916908373ffffffffffffffffffffffffffffffffffffffff160217905550808273ffffffffffffffffffffffffffffffffffffffff168473ffffffffffffffffffffffffffffffffffffffff167fddf252ad1be2c89b69c2b068fc378daa952ba7f163c4a11628f55a4df523b3ef60405160405180910390a4505050565b6000600760009054906101000a900473ffffffffffffffffffffffffffffffffffffffff16905081600760006101000a81548173ffffffffffffffffffffffffffffffffffffffff021916908373ffffffffffffffffffffffffffffffffffffffff1602179055508173ffffffffffffffffffffffffffffffffffffffff168173ffffffffffffffffffffffffffffffffffffffff167f8be0079c531659141344cd1fd0a4f28419497f9722a3daafe3b4186f6b6457e060405160405180910390a35050565b8173ffffffffffffffffffffffffffffffffffffffff168373ffffffffffffffffffffffffffffffffffffffff161415611c8f576040517f08c379a0000000000000000000000000000000000000000000000000000000008152600401611c869061327c565b60405180910390fd5b80600560008573ffffffffffffffffffffffffffffffffffffffff1673ffffffffffffffffffffffffffffffffffffffff16815260200190815260200160002060008473ffffffffffffffffffffffffffffffffffffffff1673ffffffffffffffffffffffffffffffffffffffff16815260200190815260200160002060006101000a81548160ff0219169083151502179055508173ffffffffffffffffffffffffffffffffffffffff168373ffffffffffffffffffffffffffffffffffffffff167f17307eab39ab6107e8899845ad3d59bd9653f200f220920489ca2b5937696c3183604051611d8091906131bf565b60405180910390a3505050565b611d988484846118fe565b611da484848484612104565b611de3576040517f08c379a0000000000000000000000000000000000000000000000000000000008152600401611dda906131fc565b60405180910390fd5b50505050565b606060405180602001604052806000815250905090565b6060611e0b826116e5565b611e4a576040517f08c379a0000000000000000000000000000000000000000000000000000000008152600401611e41906133fc565b60405180910390fd5b6000611e54611de9565b90506000815111611e745760405180602001604052806000815250611e9f565b80611e7e8461229b565b604051602001611e8f9291906130f6565b6040516020818303038152906040525b915050919050565b6001816000016000828254019250508190555050565b600073ffffffffffffffffffffffffffffffffffffffff168273ffffffffffffffffffffffffffffffffffffffff161415611f2d576040517f08c379a0000000000000000000000000000000000000000000000000000000008152600401611f249061333c565b60405180910390fd5b611f36816116e5565b15611f76576040517f08c379a0000000000000000000000000000000000000000000000000000000008152600401611f6d9061323c565b60405180910390fd5b611f82600083836120ff565b6001600360008473ffffffffffffffffffffffffffffffffffffffff1673ffffffffffffffffffffffffffffffffffffffff1681526020019081526020016000206000828254611fd291906135d0565b92505081905550816002600083815260200190815260200160002060006101000a81548173ffffffffffffffffffffffffffffffffffffffff021916908373ffffffffffffffffffffffffffffffffffffffff160217905550808273ffffffffffffffffffffffffffffffffffffffff16600073ffffffffffffffffffffffffffffffffffffffff167fddf252ad1be2c89b69c2b068fc378daa952ba7f163c4a11628f55a4df523b3ef60405160405180910390a45050565b612094826116e5565b6120d3576040517f08c379a00000000000000000000000000000000000000000000000000000000081526004016120ca9061331c565b60405180910390fd5b806006600084815260200190815260200160002090805190602001906120fa92919061245b565b505050565b505050565b60006121258473ffffffffffffffffffffffffffffffffffffffff16612448565b1561228e578373ffffffffffffffffffffffffffffffffffffffff1663150b7a0261214e611751565b8786866040518563ffffffff1660e01b8152600401612170949392919061314a565b602060405180830381600087803b15801561218a57600080fd5b505af19250505080156121bb57506040513d601f19601f820116820180604052508101906121b8919061285b565b60015b61223e573d80600081146121eb576040519150601f19603f3d011682016040523d82523d6000602084013e6121f0565b606091505b50600081511415612236576040517f08c379a000000000000000000000000000000000000000000000000000000000815260040161222d906131fc565b60405180910390fd5b805181602001fd5b63150b7a0260e01b7bffffffffffffffffffffffffffffffffffffffffffffffffffffffff1916817bffffffffffffffffffffffffffffffffffffffffffffffffffffffff191614915050612293565b600190505b949350505050565b606060008214156122e3576040518060400160405280600181526020017f30000000000000000000000000000000000000000000000000000000000000008152509050612443565b600082905060005b600082146123155780806122fe90613785565b915050600a8261230e9190613626565b91506122eb565b60008167ffffffffffffffff811115612357577f4e487b7100000000000000000000000000000000000000000000000000000000600052604160045260246000fd5b6040519080825280601f01601f1916602001820160405280156123895781602001600182028036833780820191505090505b5090505b6000851461243c576001826123a29190613657565b9150600a856123b191906137ce565b60306123bd91906135d0565b60f81b8183815181106123f9577f4e487b7100000000000000000000000000000000000000000000000000000000600052603260045260246000fd5b60200101907effffffffffffffffffffffffffffffffffffffffffffffffffffffffffffff1916908160001a905350600a856124359190613626565b945061238d565b8093505050505b919050565b600080823b905060008111915050919050565b82805461246790613753565b90600052602060002090601f01602090048101928261248957600085556124d0565b82601f106124a257805160ff19168380011785556124d0565b828001600101855582156124d0579182015b828111156124cf5782518255916020019190600101906124b4565b5b5090506124dd91906124e1565b5090565b5b808211156124fa5760008160009055506001016124e2565b5090565b600061251161250c84613522565b6134f1565b90508281526020810184848401111561252957600080fd5b612534848285613711565b509392505050565b600061254f61254a84613552565b6134f1565b90508281526020810184848401111561256757600080fd5b612572848285613711565b509392505050565b600081359050612589816138cc565b92915050565b60008135905061259e816138e3565b92915050565b6000813590506125b3816138fa565b92915050565b6000815190506125c8816138fa565b92915050565b600082601f8301126125df57600080fd5b81356125ef8482602086016124fe565b91505092915050565b600082601f83011261260957600080fd5b813561261984826020860161253c565b91505092915050565b60008135905061263181613911565b92915050565b60006020828403121561264957600080fd5b60006126578482850161257a565b91505092915050565b6000806040838503121561267357600080fd5b60006126818582860161257a565b92505060206126928582860161257a565b9150509250929050565b6000806000606084860312156126b157600080fd5b60006126bf8682870161257a565b93505060206126d08682870161257a565b92505060406126e186828701612622565b9150509250925092565b6000806000806080858703121561270157600080fd5b600061270f8782880161257a565b94505060206127208782880161257a565b935050604061273187828801612622565b925050606085013567ffffffffffffffff81111561274e57600080fd5b61275a878288016125ce565b91505092959194509250565b6000806040838503121561277957600080fd5b60006127878582860161257a565b92505060206127988582860161258f565b9150509250929050565b600080604083850312156127b557600080fd5b60006127c38582860161257a565b925050602083013567ffffffffffffffff8111156127e057600080fd5b6127ec858286016125f8565b9150509250929050565b6000806040838503121561280957600080fd5b60006128178582860161257a565b925050602061282885828601612622565b9150509250929050565b60006020828403121561284457600080fd5b6000612852848285016125a4565b91505092915050565b60006020828403121561286d57600080fd5b600061287b848285016125b9565b91505092915050565b60006020828403121561289657600080fd5b60006128a484828501612622565b91505092915050565b600080604083850312156128c057600080fd5b60006128ce85828601612622565b92505060206128df85828601612622565b9150509250929050565b6128f28161369d565b82525050565b6129018161368b565b82525050565b612910816136af565b82525050565b600061292182613582565b61292b8185613598565b935061293b818560208601613720565b612944816138bb565b840191505092915050565b600061295a8261358d565b61296481856135b4565b9350612974818560208601613720565b61297d816138bb565b840191505092915050565b60006129938261358d565b61299d81856135c5565b93506129ad818560208601613720565b80840191505092915050565b60006129c66032836135b4565b91507f4552433732313a207472616e7366657220746f206e6f6e20455243373231526560008301527f63656976657220696d706c656d656e74657200000000000000000000000000006020830152604082019050919050565b6000612a2c6026836135b4565b91507f4f776e61626c653a206e6577206f776e657220697320746865207a65726f206160008301527f64647265737300000000000000000000000000000000000000000000000000006020830152604082019050919050565b6000612a92601c836135b4565b91507f4552433732313a20746f6b656e20616c7265616479206d696e746564000000006000830152602082019050919050565b6000612ad26024836135b4565b91507f4552433732313a207472616e7366657220746f20746865207a65726f2061646460008301527f72657373000000000000000000000000000000000000000000000000000000006020830152604082019050919050565b6000612b386019836135b4565b91507f4552433732313a20617070726f766520746f2063616c6c6572000000000000006000830152602082019050919050565b6000612b78602c836135b4565b91507f4552433732313a206f70657261746f7220717565727920666f72206e6f6e657860008301527f697374656e7420746f6b656e00000000000000000000000000000000000000006020830152604082019050919050565b6000612bde6038836135b4565b91507f4552433732313a20617070726f76652063616c6c6572206973206e6f74206f7760008301527f6e6572206e6f7220617070726f76656420666f7220616c6c00000000000000006020830152604082019050919050565b6000612c44602a836135b4565b91507f4552433732313a2062616c616e636520717565727920666f7220746865207a6560008301527f726f2061646472657373000000000000000000000000000000000000000000006020830152604082019050919050565b6000612caa6029836135b4565b91507f4552433732313a206f776e657220717565727920666f72206e6f6e657869737460008301527f656e7420746f6b656e00000000000000000000000000000000000000000000006020830152604082019050919050565b6000612d10602e836135b4565b91507f45524337323155524953746f726167653a2055524920736574206f66206e6f6e60008301527f6578697374656e7420746f6b656e0000000000000000000000000000000000006020830152604082019050919050565b6000612d766020836135b4565b91507f4552433732313a206d696e7420746f20746865207a65726f20616464726573736000830152602082019050919050565b6000612db66031836135b4565b91507f45524337323155524953746f726167653a2055524920717565727920666f722060008301527f6e6f6e6578697374656e7420746f6b656e0000000000000000000000000000006020830152604082019050919050565b6000612e1c602c836135b4565b91507f4552433732313a20617070726f76656420717565727920666f72206e6f6e657860008301527f697374656e7420746f6b656e00000000000000000000000000000000000000006020830152604082019050919050565b6000612e826020836135b4565b91507f4f776e61626c653a2063616c6c6572206973206e6f7420746865206f776e65726000830152602082019050919050565b6000612ec26029836135b4565b91507f4552433732313a207472616e73666572206f6620746f6b656e2074686174206960008301527f73206e6f74206f776e00000000000000000000000000000000000000000000006020830152604082019050919050565b6000612f28600a836135b4565b91507f5072696365207a65726f000000000000000000000000000000000000000000006000830152602082019050919050565b6000612f68602f836135b4565b91507f4552433732314d657461646174613a2055524920717565727920666f72206e6f60008301527f6e6578697374656e7420746f6b656e00000000000000000000000000000000006020830152604082019050919050565b6000612fce6021836135b4565b91507f4552433732313a20617070726f76616c20746f2063757272656e74206f776e6560008301527f72000000000000000000000000000000000000000000000000000000000000006020830152604082019050919050565b60006130346017836135b4565b91507f4e6f74206f776e6572206f66207468697320746f6b656e0000000000000000006000830152602082019050919050565b60006130746000836135a9565b9150600082019050919050565b600061308e6031836135b4565b91507f4552433732313a207472616e736665722063616c6c6572206973206e6f74206f60008301527f776e6572206e6f7220617070726f7665640000000000000000000000000000006020830152604082019050919050565b6130f081613707565b82525050565b60006131028285612988565b915061310e8284612988565b91508190509392505050565b600061312582613067565b9150819050919050565b600060208201905061314460008301846128f8565b92915050565b600060808201905061315f60008301876128f8565b61316c60208301866128f8565b61317960408301856130e7565b818103606083015261318b8184612916565b905095945050505050565b60006040820190506131ab60008301856128f8565b6131b860208301846130e7565b9392505050565b60006020820190506131d46000830184612907565b92915050565b600060208201905081810360008301526131f4818461294f565b905092915050565b60006020820190508181036000830152613215816129b9565b9050919050565b6000602082019050818103600083015261323581612a1f565b9050919050565b6000602082019050818103600083015261325581612a85565b9050919050565b6000602082019050818103600083015261327581612ac5565b9050919050565b6000602082019050818103600083015261329581612b2b565b9050919050565b600060208201905081810360008301526132b581612b6b565b9050919050565b600060208201905081810360008301526132d581612bd1565b9050919050565b600060208201905081810360008301526132f581612c37565b9050919050565b6000602082019050818103600083015261331581612c9d565b9050919050565b6000602082019050818103600083015261333581612d03565b9050919050565b6000602082019050818103600083015261335581612d69565b9050919050565b6000602082019050818103600083015261337581612da9565b9050919050565b6000602082019050818103600083015261339581612e0f565b9050919050565b600060208201905081810360008301526133b581612e75565b9050919050565b600060208201905081810360008301526133d581612eb5565b9050919050565b600060208201905081810360008301526133f581612f1b565b9050919050565b6000602082019050818103600083015261341581612f5b565b9050919050565b6000602082019050818103600083015261343581612fc1565b9050919050565b6000602082019050818103600083015261345581613027565b9050919050565b6000602082019050818103600083015261347581613081565b9050919050565b600060208201905061349160008301846130e7565b92915050565b600060a0820190506134ac60008301886130e7565b81810360208301526134be818761294f565b90506134cd60408301866128e9565b6134da60608301856130e7565b6134e76080830184612907565b9695505050505050565b6000604051905081810181811067ffffffffffffffff821117156135185761351761388c565b5b8060405250919050565b600067ffffffffffffffff82111561353d5761353c61388c565b5b601f19601f8301169050602081019050919050565b600067ffffffffffffffff82111561356d5761356c61388c565b5b601f19601f8301169050602081019050919050565b600081519050919050565b600081519050919050565b600082825260208201905092915050565b600081905092915050565b600082825260208201905092915050565b600081905092915050565b60006135db82613707565b91506135e683613707565b9250827fffffffffffffffffffffffffffffffffffffffffffffffffffffffffffffffff0382111561361b5761361a6137ff565b5b828201905092915050565b600061363182613707565b915061363c83613707565b92508261364c5761364b61382e565b5b828204905092915050565b600061366282613707565b915061366d83613707565b9250828210156136805761367f6137ff565b5b828203905092915050565b6000613696826136e7565b9050919050565b60006136a8826136e7565b9050919050565b60008115159050919050565b60007fffffffff0000000000000000000000000000000000000000000000000000000082169050919050565b600073ffffffffffffffffffffffffffffffffffffffff82169050919050565b6000819050919050565b82818337600083830152505050565b60005b8381101561373e578082015181840152602081019050613723565b8381111561374d576000848401525b50505050565b6000600282049050600182168061376b57607f821691505b6020821081141561377f5761377e61385d565b5b50919050565b600061379082613707565b91507fffffffffffffffffffffffffffffffffffffffffffffffffffffffffffffffff8214156137c3576137c26137ff565b5b600182019050919050565b60006137d982613707565b91506137e483613707565b9250826137f4576137f361382e565b5b828206905092915050565b7f4e487b7100000000000000000000000000000000000000000000000000000000600052601160045260246000fd5b7f4e487b7100000000000000000000000000000000000000000000000000000000600052601260045260246000fd5b7f4e487b7100000000000000000000000000000000000000000000000000000000600052602260045260246000fd5b7f4e487b7100000000000000000000000000000000000000000000000000000000600052604160045260246000fd5b6000601f19601f8301169050919050565b6138d58161368b565b81146138e057600080fd5b50565b6138ec816136af565b81146138f757600080fd5b50565b613903816136bb565b811461390e57600080fd5b50565b61391a81613707565b811461392557600080fd5b5056fea26469706673582212203b3a6e8b94aa56e9e52160cf90818d24c198c0ee44812e52340fcd6f626115b764736f6c63430008000033",
  "linkReferences": {},
  "deployedLinkReferences": {}
}